:020000040000FA
:100000000C945D000C9485000C9485000C94850084
:100010000C9485000C9485000C9485000C9485004C
:100020000C9485000C9485000C9485000C9485003C
:100030000C9485000C9485000C9485000C9485002C
:100040000C9442060C9485000C94B2060C948C0619
:100050000C9485000C9485000C9485000C9485000C
:100060000C9485000C9485000000000024002700FB
:100070002A0000000000250028002B0004040404CE
:100080000404040402020202020203030303030342
:10009000010204081020408001020408102001021F
:1000A00004081020000000080002010000030407FB
:1000B0000000000000000000F90811241FBECFEF6F
:1000C000D8E0DEBFCDBF13E0A0E0B1E0ECE5F6E1A3
:1000D00002C005900D92A83BB107D9F724E0A8EB28
:1000E000B3E001C01D92A137B207E1F710E0CDE502
:1000F000D0E004C02197FE010E94260BCC35D10729
:10010000C9F70E94E4060C942C0B0C94000090E0BC
:10011000FC01EC55FF4F2491FC01E057FF4F349157
:10012000FC01E458FF4FE491EE23C9F0222339F09B
:10013000233001F1A8F4213019F1223029F1F0E047
:10014000EE0FFF1FEE58FF4FA591B4918FB7F894B3
:10015000EC91611126C030953E233C938FBF0895EA
:100160002730A9F02830C9F0243049F78091800069
:100170008F7D03C0809180008F7780938000DFCFD8
:1001800084B58F7784BDDBCF84B58F7DFBCF809125
:10019000B0008F778093B000D2CF8091B0008F7D78
:1001A000F9CF3E2BDACF8E50806480937C00809113
:1001B0007A00806480937A0080917A0086FDFCCF7B
:1001C000809178009091790008953FB7F8948091DC
:1001D000D0039091D103A091D203B091D30326B55F
:1001E000A89B05C02F3F19F00196A11DB11D3FBF6F
:1001F000BA2FA92F982F8827BC01CD01620F711D3E
:10020000811D911D42E0660F771F881F991F4A9537
:10021000D1F708958F929F92AF92BF92CF92DF92C3
:10022000EF92FF924B015C010E94E5006B017C01A3
:100230000E94E5006C197D098E099F09683E734094
:1002400081059105A8F321E0821A9108A108B1085F
:1002500088EEC80E83E0D81EE11CF11C81149104C5
:10026000A104B10429F7FF90EF90DF90CF90BF90E9
:10027000AF909F908F9008952FB7F8946091CC0322
:100280007091CD038091CE039091CF032FBF08953D
:10029000AF92BF92CF92DF92EF92FF920F931F9394
:1002A000CF93DF936C017B018B01040F151FEB01D2
:1002B0005E01AE18BF08C017D10759F06991D60189
:1002C000ED91FC910190F081E02DC6010995892BFB
:1002D00079F7C501DF91CF911F910F91FF90EF90BA
:1002E000DF90CF90BF90AF900895FC01538D448D67
:1002F000252F30E0842F90E0821B930B541710F0D1
:10030000CF96089501970895FC01918D828D9817DD
:1003100061F0A28DAE0FBF2FB11D5D968C91928DB5
:100320009F5F9F73928F90E008958FEF9FEF0895E6
:10033000FC01918D828D981731F0828DE80FF11DAF
:10034000858D90E008958FEF9FEF0895FC01918DCA
:10035000228D892F90E0805C9F4F821B91098F73C3
:100360009927089584ED93E00E94A60121E0892B4E
:1003700009F420E0822F089580E090E0892B29F095
:100380000E94B20181110C9400000895FC01A48D1B
:10039000A80FB92FB11DA35ABF4F2C91848D90E0A7
:1003A00001968F739927848FA689B7892C93A0898A
:1003B000B1898C91837080648C93938D848D981314
:1003C00006C00288F389E02D80818F7D80830895A7
:1003D000EF92FF920F931F93CF93DF93EC0181E095
:1003E000888F9B8D8C8D98131AC0E889F98980813C
:1003F00085FF15C09FB7F894EE89FF896083E8896F
:10040000F98980818370806480839FBF81E090E060
:10041000DF91CF911F910F91FF90EF900895F62EED
:100420000B8D10E00F5F1F4F0F731127E02E8C8D87
:100430008E110CC00FB607FCFACFE889F9898081CC
:1004400085FFF5CFCE010E94C601F1CFEB8DEC0FF9
:10045000FD2FF11DE35AFF4FF0829FB7F8940B8FE9
:10046000EA89FB8980818062CFCFCF93DF93EC0153
:10047000888D8823B9F0AA89BB89E889F9898C918C
:1004800085FD03C0808186FD0DC00FB607FCF7CF48
:100490008C9185FFF2CF808185FFEDCFCE010E9448
:1004A000C601E9CFDF91CF9108951092BF0310925A
:1004B000BE031092C2031092C1031092C0030895AC
:1004C0000F931F93CF938C01C2E0F80160810E5F00
:1004D0001F4F8C2F0E948700CF5FC930B1F7CF919B
:1004E0001F910F910895CF93DF93CDB7DEB72E976D
:1004F0000FB6F894DEBF0FBECDBF8EE0E0E0F1E0B6
:10050000DE01119601900D928A95E1F7CE010196D8
:100510000E9460022E960FB6F894DEBF0FBECDBFCC
:10052000DF91CF910895CF93DF93CDB7DEB72E97AC
:100530000FB6F894DEBF0FBECDBF8EE0E0E0F1E075
:10054000DE01119601900D928A95E1F78091BE032C
:100550009091BF03079730F085E090E09093BF0340
:100560008093BE038091BE039091BF03FC01EE0F08
:10057000FF1F21E030E02C0F3D1FE20FF31F11821F
:10058000108201979093BF038093BE03C9010E941C
:1005900060022E960FB6F894DEBF0FBECDBFDF917E
:1005A000CF910895CF93DF93CDB7DEB72E970FB6D7
:1005B000F894DEBF0FBECDBF8EE0E0E0F1E0DE01DB
:1005C000119601900D928A95E1F78091BE0390916A
:1005D000BF03079720F01092BF031092BE038091D3
:1005E000BE039091BF03FC01EE0FFF1F21E030E03E
:1005F0002C0F3D1FE20FF31F1182108201968630EF
:10060000910589F09093BF038093BE03CE010196BC
:100610000E9460022E960FB6F894DEBF0FBECDBFCB
:10062000DF91CF91089587E090E0ECCFFC0101903D
:100630000020E9F73197AF01481B590BBC0184ED4D
:1006400093E00C9448018F929F92AF92BF920F93C8
:100650001F93CF93DF93CDB7DEB7A1970FB6F89472
:10066000DEBF0FBECDBF19A2423008F44AE08E01B2
:100670000F5D1F4F842E912CB12CA12CA50194014C
:100680000E94040BE62FB901CA01EA30F4F4E05DE0
:10069000D801EE938D01232B242B252B79F790E0A5
:1006A00080E0109719F0CD010E941603A1960FB6B5
:1006B000F894DEBF0FBECDBFDF91CF911F910F9198
:1006C000BF90AF909F908F900895E95CE1CFCF935A
:1006D000DF930E941603EC0180E991E00E9416036B
:1006E0008C0F9D1FDF91CF910895EF92FF920F9392
:1006F0001F93CF93DF93CDB7DEB72E970FB6F89445
:10070000DEBF0FBECDBF81E08093C3031A82198282
:100710001C821B821E821D8218861F821A861986E1
:100720001C861B86EE24E394F12CFE86ED868E015A
:100730000F5F1F4FC8010E94600283E991E00E9491
:10074000670364EF71E080E090E00E940A018EE0B0
:10075000EEE0F1E0D80101900D928A95E1F7C80131
:100760000E9460028FEA91E00E94670364EF71E0EB
:1007700080E090E00E940A018EE0ECE1F1E0D80117
:1007800001900D928A95E1F7C8010E9460028AECFF
:1007900091E00E94670364EF71E080E090E00E94C6
:1007A0000A018EE0EAE2F1E0D80101900D928A950B
:1007B000E1F7C8010E94600285EE91E00E946703A4
:1007C00064EF71E080E090E00E940A018EE0E8E3CF
:1007D000F1E0D80101900D928A95E1F7C8010E94DD
:1007E000600282E092E00E94670364EF71E080E0C3
:1007F00090E00E940A018EE0E6E4F1E0D801019069
:100800000D928A95E1F7C8010E9460028EE192E0A4
:100810000E94670364EF71E080E090E00E940A01AB
:100820001A821982FC82EB821E821D8218861F8228
:100830001A8619861C861B861E861D86C8010E9484
:1008400060028AE392E00E94670364EF71E080E057
:1008500090E00E940A018EE0E4E5F1E0D801019009
:100860000D928A95E1F7C8010E94600285E592E049
:100870000E94670364EF71E080E090E00E940A014B
:100880003EE0F32EF8018F2D11928A95E9F7C80109
:100890000E94600282E792E00E94670364EF71E0C9
:1008A00080E090E00E940A01E2E6F1E0D8010190C8
:1008B0000D92FA94E1F7C8010E9460028FE892E07D
:1008C0000E94670364EF71E080E090E00E940A01FB
:1008D0008BEA92E00E9467034CE1E42EF12C0E9427
:1008E000D20264E670E080E090E00E940A01E1E05C
:1008F000EE1AF108A1F764EF71E080E090E00E9449
:100900000A0184EE92E00E9467039CE1E92EF12C3B
:100910000E94930264E670E080E090E00E940A0189
:10092000F1E0EF1AF108A1F764EF71E080E090E0E8
:100930000E940A018EE0F82EF8018F2D11928A95FF
:10094000E9F7C8010E94600285E293E00E94670314
:1009500064EF71E080E090E00E940A01E0E0F1E0E5
:10096000D80101900D92FA94E1F7C8010E9460024B
:1009700088E493E00E94670364EF71E080E090E018
:100980000E940A0164EF71E080E090E00E940A0199
:100990001092C3032E960FB6F894DEBF0FBECDBFE4
:1009A000DF91CF911F910F91FF90EF900895CF931A
:1009B000DF93CDB7DEB72E970FB6F894DEBF0FBE2C
:1009C000CDBF1A8219821C821B821E821D8281E089
:1009D00090E098878F831A8619861C861B861E8650
:1009E0001D86CE0101960E9460028CE693E00E9473
:1009F00067032E960FB6F894DEBF0FBECDBFDF9112
:100A0000CF9108954F925F926F927F928F929F92B3
:100A1000AF92BF92CF92DF92EF92FF92CF93DF938C
:100A2000CDB7DEB72E970FB6F894DEBF0FBECDBFA1
:100A30008EE00E94D300BC01990F880B990B0E9495
:100A4000C90923E23BED49EF5EE30E947E0A20E004
:100A500030E040EC51E40E94790A181644F5809188
:100A6000CA03882321F1C090B803D090B903E09065
:100A7000BA03F090BB030E943C016C197D098E09FA
:100A80009F09693E73408105910588F08EE0E0E79B
:100A9000F1E0DE01119601900D928A95E1F7CE0109
:100AA00001960E94600285E893E00E9467030E941D
:100AB0003C01C090B803D090B903E090BA03F09025
:100AC000BB036C197D098E099F09693E734081053E
:100AD000910578F18EE993E00E9416038EE00E9462
:100AE000D300BC01990F880B990B0E94C90923E21E
:100AF0003BED49EF5EE30E947E0A6B017C014B01F6
:100B00005C01AC019B010E94EB0A882339F18CEA5D
:100B100093E00E94160380E991E00E9416030E9470
:100B20003C016093B8037093B9038093BA03909328
:100B3000BB032E960FB6F894DEBF0FBECDBFDF917C
:100B4000CF91FF90EF90DF90CF90BF90AF909F90AC
:100B50008F907F906F905F904F900895260137019E
:100B6000E89477F82FEF3FEF4FE75FE7C301B2015B
:100B70000E94EB0A81110DC02FEF3FEF4FE75FE7B7
:100B8000C301B2010E94930918161CF480EB93E094
:100B9000C0CF2FEF3FEF4FE75FE4C701B6010E94E0
:100BA000790A18161CF484EB93E0B3CF2FEF3FEFD4
:100BB0004FE75FECC701B6010E94930987FDF3CFB1
:100BC00020E030E0A901C701B6010E94930987FF28
:100BD0000BC06DE284ED93E00E94E80146015701ED
:100BE000B7FAB094B7F8B0942AE037ED43EA5BE384
:100BF000C501B4010E9427094B015C010E949809BC
:100C00006B017C010E94C7099B01AC01C501B401C5
:100C10000E9426094B015C014AE0C701B6010E940F
:100C200023036EE284ED93E00E94E80120E030E0CF
:100C300040E251E4C501B4010E947E0A4B015C010F
:100C40000E9498096B01F12CE12C4AE0C701B60122
:100C50000E942303C701B6010E94C7099B01AC0192
:100C6000C501B4010E94260920E030E040E251E4D1
:100C70000E947E0A0E94980990E080E04AE00E946B
:100C8000230349CF1F920F920FB60F9211242F9377
:100C90003F938F939F93AF93BF938091CC03909199
:100CA000CD03A091CE03B091CF033091CB0323E0CD
:100CB000230F2D3758F50196A11DB11D2093CB03AD
:100CC0008093CC039093CD03A093CE03B093CF0336
:100CD0008091D0039091D103A091D203B091D3031E
:100CE0000196A11DB11D8093D0039093D103A093D1
:100CF000D203B093D303BF91AF919F918F913F9156
:100D00002F910F900FBE0F901F90189526E8230F7C
:100D10000296A11DB11DD2CF1F920F920FB60F9256
:100D200011242F933F934F935F936F937F938F93F0
:100D30009F93AF93BF93EF93FF9384ED93E00E9453
:100D4000C601FF91EF91BF91AF919F918F917F91DC
:100D50006F915F914F913F912F910F900FBE0F9028
:100D60001F9018951F920F920FB60F9211242F9378
:100D70008F939F93EF93FF93E091E403F091E5034A
:100D80008081E091EA03F091EB0382FD1BC090812A
:100D90008091ED038F5F8F732091EE03821741F0F6
:100DA000E091ED03F0E0EC52FC4F958F8093ED0362
:100DB000FF91EF919F918F912F910F900FBE0F9008
:100DC0001F9018958081F4CF789484B5826084BD9B
:100DD00084B5816084BD85B5826085BD85B581603F
:100DE00085BD80916E00816080936E0010928100BD
:100DF0008091810082608093810080918100816078
:100E00008093810080918000816080938000809138
:100E1000B10084608093B1008091B00081608093C4
:100E2000B00080917A00846080937A0080917A008B
:100E3000826080937A0080917A00816080937A004A
:100E400080917A00806880937A001092C100E091CE
:100E5000E403F091E50382E08083E091E003F09108
:100E6000E1031082E091E203F091E3038FEC8083D1
:100E70001092EC03E091E803F091E90386E08083AF
:100E8000E091E603F091E703808180618083E09147
:100E9000E603F091E703808188608083E091E603B8
:100EA000F091E703808180688083E091E603F09110
:100EB000E70380818F7D80830E943C016093B803AB
:100EC0007093B9038093BA039093BB030E943C01D3
:100ED0006093C6037093C7038093C8039093C903BC
:100EE00022E030E0F901E057FF4F4491F901E45866
:100EF000FF4F8491882399F090E0880F991FFC019F
:100F0000E859FF4FA591B491FC01EE58FF4F859130
:100F100094918FB7F894EC91E42BEC938FBF2F5FF3
:100F20003F4F2A303105F1F68091C303811102C091
:100F30000E947503332433948AE0882E912C05E0B7
:100F400010E0EE24E394F12C26E0C22ED12C33E005
:100F5000A32EB12C84ED93E00E94A6011816190669
:100F6000CCF484ED93E00E9484018134910509F46E
:100F7000BFC00CF0A4C08433910509F4DCC00CF0B0
:100F80008DC08133910509F4CBC00CF07CC0C097B3
:100F900009F4C1C08091CA0381110E9402050E9418
:100FA0003C014090C6035090C7036090C803709006
:100FB000C9036419750986099709603171058105AE
:100FC000910528F1C091C403D091C5038091C2035B
:100FD000882309F4D8C0CE01B8010E94F00A892BF9
:100FE00009F0D1C00E94D2020E943C016093C60366
:100FF0007093C7038093C8039093C9032196CD33A0
:10100000D10508F0F1C0D093C503C093C4038FE0AD
:101010000E94D3008F3F934049F58091C303811113
:1010200025C08FE00E94D3002C01990F6608770835
:101030004AE0C301B20177FE0DC06DE284ED93E09A
:101040000E94E80166277727CB0164197509860994
:1010500097094AE00E94230380E991E00E94160369
:101060008091C303811102C00E94750380E090E06B
:10107000892B09F46FCF0E94B201882309F46ACF4B
:101080000E94000067CF8233910509F44EC0C397D8
:1010900009F080CF6091BC0383E04AC0863391059C
:1010A00009F451C00CF44BC08733910509F44FC0CB
:1010B000C89709F06FCF6091BC0388E039C08336D0
:1010C000910551F0D4F48335910509F444C04CF4F2
:1010D0008434910509F05ECF0E9455020E9473028C
:1010E00059CF84359105E1F18136910509F052CF50
:1010F0000E9455020E94D7044DCF85369105C9F153
:10110000ACF183379105D1F18437910509F042CFD5
:101110000E9402053FCF1092BD031092BC033ACF4C
:10112000F092BD03E092BC0335CF6091BC0382E036
:101130000E9487002FCF6091BC0384E0F9CF6091BB
:10114000BC0385E0F5CF6091BC0386E0F1CF6091F0
:10115000BC0387E0EDCF0E9455023092C1031ACF45
:101160008091CA0383258093CA0314CF0E9455023D
:1011700011CF0E9455023092C0030CCF0E9455023D
:101180003092C20307CF8091C103882349F0CE017A
:10119000B8010E94F00A892B19F40E94930224CF0F
:1011A0008091C003882309F41FCFCE01B4010E94AF
:1011B000F00A892B09F018CF8091BE039091BF03EC
:1011C0008630910529F41092BF031092BE030CCF14
:1011D000892B29F4B092BF03A092BE0305CFD09211
:1011E000BF03C092BE0300CF1092C5031092C40388
:1011F0000ECFE4EDF3E01382128288EE93E0A0E0DC
:10120000B0E084839583A683B78382E891E09183DD
:10121000808385EC90E09587848784EC90E09787C5
:10122000868780EC90E0918B808B81EC90E0938BB3
:10123000828B82EC90E0958B848B86EC90E0978B90
:10124000868B118E128E138E148E08955058BB27E4
:10125000AA270E943E090C943F0A0E94310A38F0E6
:101260000E94380A20F039F49F3F19F426F40C94B8
:101270002E0A0EF4E095E7FB0C94280AE92F0E9451
:10128000500A58F3BA17620773078407950720F0CE
:1012900079F4A6F50C94720A0EF4E0950B2EBA2F91
:1012A000A02D0B01B90190010C01CA01A00111246C
:1012B000FF27591B99F0593F50F4503E68F11A1618
:1012C000F040A22F232F342F4427585FF3CF4695A9
:1012D00037952795A795F0405395C9F77EF41F16CB
:1012E000BA0B620B730B840BBAF09150A1F0FF0F95
:1012F000BB1F661F771F881FC2F70EC0BA0F621F81
:10130000731F841F48F4879577956795B795F79570
:101310009E3F08F0B0CF9395880F08F09927EE0F05
:101320009795879508950E94040A08F481E008952E
:101330000E94580A88F09F5798F0B92F9927B75103
:10134000B0F0E1F0660F771F881F991F1AF0BA9569
:10135000C9F714C0B13091F00E94720AB1E008954B
:101360000C94720A672F782F8827B85F39F0B93F3D
:10137000CCF3869577956795B395D9F73EF490951C
:101380008095709561957F4F8F4F9F4F0895E8949A
:1013900009C097FB3EF490958095709561957F4FBD
:1013A0008F4F9F4F9923A9F0F92F96E9BB2793956B
:1013B000F695879577956795B795F111F8CFFAF47B
:1013C000BB0F11F460FF1BC06F5F7F4F8F4F9F4FAC
:1013D00016C0882311F096E911C0772321F09EE80A
:1013E000872F762F05C0662371F096E8862F70E070
:1013F00060E02AF09A95660F771F881FDAF7880F4A
:101400009695879597F90895990F0008550FAA0B9F
:10141000E0E8FEEF16161706E807F907C0F0121607
:101420001306E407F50798F0621B730B840B950B0A
:1014300039F40A2661F0232B242B252B21F408955F
:101440000A2609F4A140A6958FEF811D811D0895FC
:1014500097F99F6780E870E060E008959FEF80EC67
:10146000089500240A94161617061806090608950A
:1014700000240A9412161306140605060895092E70
:101480000394000C11F4882352F0BB0F40F4BF2BDF
:1014900011F460FF04C06F5F7F4F8F4F9F4F08951F
:1014A00057FD9058440F551F59F05F3F71F0479515
:1014B000880F97FB991F61F09F3F79F087950895FA
:1014C000121613061406551FF2CF4695F1DF08C019
:1014D000161617061806991FF1CF86957105610536
:1014E00008940895E894BB2766277727CB0197F9DE
:1014F00008950E94040A08F48FEF08950E94910A4B
:101500000C943F0A0E94310A38F00E94380A20F0F9
:10151000952311F00C94280A0C942E0A11240C9493
:10152000730A0E94500A70F3959FC1F3950F50E023
:10153000551F629FF001729FBB27F00DB11D639F85
:10154000AA27F00DB11DAA1F649F6627B00DA11D2B
:10155000661F829F2227B00DA11D621F739FB00DD1
:10156000A11D621F839FA00D611D221F749F332741
:10157000A00D611D231F849F600D211D822F762FDA
:101580006A2F11249F5750409AF0F1F088234AF0B7
:10159000EE0FFF1FBB1F661F771F881F9150504023
:1015A000A9F79E3F510580F00C94280A0C94730A09
:1015B0005F3FE4F3983ED4F3869577956795B795AA
:1015C000F795E7959F5FC1F7FE2B880F911D9695C4
:1015D000879597F908950E94040A880B990B08953E
:1015E000AA1BBB1B51E107C0AA1FBB1FA617B70749
:1015F00010F0A61BB70B881F991F5A95A9F7809565
:101600009095BC01CD010895A1E21A2EAA1BBB1B27
:10161000FD010DC0AA1FBB1FEE1FFF1FA217B307BE
:10162000E407F50720F0A21BB30BE40BF50B661FD4
:10163000771F881F991F1A9469F760957095809598
:1016400090959B01AC01BD01CF010895EE0FFF1FE6
:101650000590F491E02D0994F894FFCF010001006A
:101660000100010001000100010001000000000074
:101670000100010001000100000000000100000065
:101680000000010000000000000000000000010058
:101690000100000001000000000001000100000046
:1016A0000000000001000000000001000000000038
:1016B0000000000000000100010001000100000026
:1016C0000000000001000100000000000100000017
:1016D0000000010000000000000000000000E80120
:1016E000480175013502A601840198010D0A0054D4
:1016F000657374696E6720746865206E756D6265C8
:1017000072205A45524F203A203000546573746954
:101710006E6720746865206E756D626572204F4E2D
:1017200045203A20310054657374696E67207468EF
:1017300065206E756D6265722054574F203A2032D5
:101740000054657374696E6720746865206E756DEA
:10175000626572205448524545203A203300546552
:101760007374696E6720746865206E756D6265724A
:1017700020464F5552203A20340054657374696EE8
:101780006720746865206E756D62657220464956E3
:1017900045203A20350054657374696E672074687B
:1017A00065206E756D62657220534958203A203667
:1017B0000054657374696E6720746865206E756D7A
:1017C00062657220534556454E203A2037005465D5
:1017D0007374696E6720746865206E756D626572DA
:1017E000204549474854203A2038005465737469AD
:1017F0006E6720746865206E756D626572204E4953
:101800004E45203A20390054657374696E67207420
:101810006865204C4544205370696E6E696E672080
:1018200066756E6374696F6E2077697468203720FF
:101830004C6F6F70732061742031324650532E000C
:1018400054657374696E6720746865204C45442044
:101850005370696E6E696E67207265766572736526
:101860002066756E6374696F6E20776974682037BF
:10187000204C6F6F70732061742031324650532EAC
:101880000054657374696E672074686520617272B4
:101890006179206265696E67207475726E65642077
:1018A0004F4E2E0054657374696E6720746865200E
:1018B0006172726179206265696E67207475726EFB
:1018C0006564204F46462E00446973706C617969E7
:1018D0006E6720746865204C657474657220412EB3
:1018E00000446973706C6179696E67207468652063
:1018F0004C657474657220482E0054656D70657275
:1019000061747572653A20006E616E00696E6600E2
:041910006F76660088
:107E0000112484B714BE81FFF0D085E080938100F7
:107E100082E08093C00088E18093C10086E0809377
:107E2000C20080E18093C4008EE0C9D0259A86E02C
:107E300020E33CEF91E0309385002093840096BBD3
:107E4000B09BFECF1D9AA8958150A9F7CC24DD24C4
:107E500088248394B5E0AB2EA1E19A2EF3E0BF2EE7
:107E6000A2D0813461F49FD0082FAFD0023811F036
:107E7000013811F484E001C083E08DD089C08234E0
:107E800011F484E103C0853419F485E0A6D080C0E4
:107E9000853579F488D0E82EFF2485D0082F10E0AE
:107EA000102F00270E291F29000F111F8ED06801E7
:107EB0006FC0863521F484E090D080E0DECF843638
:107EC00009F040C070D06FD0082F6DD080E0C81688
:107ED00080E7D80618F4F601B7BEE895C0E0D1E017
:107EE00062D089930C17E1F7F0E0CF16F0E7DF06D8
:107EF00018F0F601B7BEE89568D007B600FCFDCFD4
:107F0000A601A0E0B1E02C9130E011968C91119780
:107F100090E0982F8827822B932B1296FA010C0160
:107F200087BEE89511244E5F5F4FF1E0A038BF0790
:107F300051F7F601A7BEE89507B600FCFDCF97BE46
:107F4000E89526C08437B1F42ED02DD0F82E2BD052
:107F50003CD0F601EF2C8F010F5F1F4F84911BD097
:107F6000EA94F801C1F70894C11CD11CFA94CF0C13
:107F7000D11C0EC0853739F428D08EE10CD085E9AC
:107F80000AD08FE07ACF813511F488E018D01DD067
:107F900080E101D065CF982F8091C00085FFFCCF94
:107FA0009093C60008958091C00087FFFCCF809118
:107FB000C00084FD01C0A8958091C6000895E0E648
:107FC000F0E098E1908380830895EDDF803219F02E
:107FD00088E0F5DFFFCF84E1DECF1F93182FE3DFCA
:107FE0001150E9F7F2DF1F91089580E0E8DFEE27F6
:047FF000FF270994CA
:027FFE00040479
:00000001FF
